{
  "_format": "hh-sol-artifact-1",
  "contractName": "DegenToken",
  "sourceName": "contracts/DegenToken.sol",
  "abi": [
    {
      "inputs": [],
      "stateMutability": "nonpayable",
      "type": "constructor"
    },
    {
      "anonymous": false,
      "inputs": [
        {
          "indexed": true,
          "internalType": "address",
          "name": "owner",
          "type": "address"
        },
        {
          "indexed": true,
          "internalType": "address",
          "name": "spender",
          "type": "address"
        },
        {
          "indexed": false,
          "internalType": "uint256",
          "name": "value",
          "type": "uint256"
        }
      ],
      "name": "Approval",
      "type": "event"
    },
    {
      "anonymous": false,
      "inputs": [
        {
          "indexed": true,
          "internalType": "address",
          "name": "previousOwner",
          "type": "address"
        },
        {
          "indexed": true,
          "internalType": "address",
          "name": "newOwner",
          "type": "address"
        }
      ],
      "name": "OwnershipTransferred",
      "type": "event"
    },
    {
      "anonymous": false,
      "inputs": [
        {
          "indexed": true,
          "internalType": "address",
          "name": "from",
          "type": "address"
        },
        {
          "indexed": true,
          "internalType": "address",
          "name": "to",
          "type": "address"
        },
        {
          "indexed": false,
          "internalType": "uint256",
          "name": "value",
          "type": "uint256"
        }
      ],
      "name": "Transfer",
      "type": "event"
    },
    {
      "inputs": [
        {
          "internalType": "uint256",
          "name": "itemID",
          "type": "uint256"
        },
        {
          "internalType": "string",
          "name": "_name",
          "type": "string"
        },
        {
          "internalType": "uint256",
          "name": "_price",
          "type": "uint256"
        },
        {
          "internalType": "uint256",
          "name": "_stock",
          "type": "uint256"
        }
      ],
      "name": "addItem",
      "outputs": [],
      "stateMutability": "nonpayable",
      "type": "function"
    },
    {
      "inputs": [
        {
          "internalType": "address",
          "name": "owner",
          "type": "address"
        },
        {
          "internalType": "address",
          "name": "spender",
          "type": "address"
        }
      ],
      "name": "allowance",
      "outputs": [
        {
          "internalType": "uint256",
          "name": "",
          "type": "uint256"
        }
      ],
      "stateMutability": "view",
      "type": "function"
    },
    {
      "inputs": [
        {
          "internalType": "address",
          "name": "spender",
          "type": "address"
        },
        {
          "internalType": "uint256",
          "name": "amount",
          "type": "uint256"
        }
      ],
      "name": "approve",
      "outputs": [
        {
          "internalType": "bool",
          "name": "",
          "type": "bool"
        }
      ],
      "stateMutability": "nonpayable",
      "type": "function"
    },
    {
      "inputs": [],
      "name": "balance",
      "outputs": [
        {
          "internalType": "uint256",
          "name": "",
          "type": "uint256"
        }
      ],
      "stateMutability": "view",
      "type": "function"
    },
    {
      "inputs": [
        {
          "internalType": "address",
          "name": "account",
          "type": "address"
        }
      ],
      "name": "balanceOf",
      "outputs": [
        {
          "internalType": "uint256",
          "name": "",
          "type": "uint256"
        }
      ],
      "stateMutability": "view",
      "type": "function"
    },
    {
      "inputs": [
        {
          "internalType": "uint256",
          "name": "amount",
          "type": "uint256"
        }
      ],
      "name": "burn",
      "outputs": [],
      "stateMutability": "nonpayable",
      "type": "function"
    },
    {
      "inputs": [],
      "name": "decimals",
      "outputs": [
        {
          "internalType": "uint8",
          "name": "",
          "type": "uint8"
        }
      ],
      "stateMutability": "view",
      "type": "function"
    },
    {
      "inputs": [
        {
          "internalType": "address",
          "name": "spender",
          "type": "address"
        },
        {
          "internalType": "uint256",
          "name": "subtractedValue",
          "type": "uint256"
        }
      ],
      "name": "decreaseAllowance",
      "outputs": [
        {
          "internalType": "bool",
          "name": "",
          "type": "bool"
        }
      ],
      "stateMutability": "nonpayable",
      "type": "function"
    },
    {
      "inputs": [
        {
          "internalType": "uint256",
          "name": "",
          "type": "uint256"
        }
      ],
      "name": "gameStore",
      "outputs": [
        {
          "internalType": "string",
          "name": "name",
          "type": "string"
        },
        {
          "internalType": "uint256",
          "name": "price",
          "type": "uint256"
        },
        {
          "internalType": "uint256",
          "name": "stock",
          "type": "uint256"
        }
      ],
      "stateMutability": "view",
      "type": "function"
    },
    {
      "inputs": [
        {
          "internalType": "uint256",
          "name": "itemID",
          "type": "uint256"
        }
      ],
      "name": "getItem",
      "outputs": [
        {
          "components": [
            {
              "internalType": "string",
              "name": "name",
              "type": "string"
            },
            {
              "internalType": "uint256",
              "name": "price",
              "type": "uint256"
            },
            {
              "internalType": "uint256",
              "name": "stock",
              "type": "uint256"
            }
          ],
          "internalType": "struct DegenToken.Item",
          "name": "",
          "type": "tuple"
        }
      ],
      "stateMutability": "view",
      "type": "function"
    },
    {
      "inputs": [
        {
          "internalType": "uint256",
          "name": "itemID",
          "type": "uint256"
        }
      ],
      "name": "getItemName",
      "outputs": [
        {
          "internalType": "string",
          "name": "",
          "type": "string"
        }
      ],
      "stateMutability": "view",
      "type": "function"
    },
    {
      "inputs": [
        {
          "internalType": "uint256",
          "name": "itemID",
          "type": "uint256"
        }
      ],
      "name": "getItemPrice",
      "outputs": [
        {
          "internalType": "uint256",
          "name": "",
          "type": "uint256"
        }
      ],
      "stateMutability": "view",
      "type": "function"
    },
    {
      "inputs": [
        {
          "internalType": "uint256",
          "name": "itemID",
          "type": "uint256"
        }
      ],
      "name": "getItemStock",
      "outputs": [
        {
          "internalType": "uint256",
          "name": "",
          "type": "uint256"
        }
      ],
      "stateMutability": "view",
      "type": "function"
    },
    {
      "inputs": [
        {
          "internalType": "address",
          "name": "spender",
          "type": "address"
        },
        {
          "internalType": "uint256",
          "name": "addedValue",
          "type": "uint256"
        }
      ],
      "name": "increaseAllowance",
      "outputs": [
        {
          "internalType": "bool",
          "name": "",
          "type": "bool"
        }
      ],
      "stateMutability": "nonpayable",
      "type": "function"
    },
    {
      "inputs": [
        {
          "internalType": "address",
          "name": "to",
          "type": "address"
        },
        {
          "internalType": "uint256",
          "name": "amount",
          "type": "uint256"
        }
      ],
      "name": "mint",
      "outputs": [],
      "stateMutability": "nonpayable",
      "type": "function"
    },
    {
      "inputs": [],
      "name": "name",
      "outputs": [
        {
          "internalType": "string",
          "name": "",
          "type": "string"
        }
      ],
      "stateMutability": "view",
      "type": "function"
    },
    {
      "inputs": [],
      "name": "owner",
      "outputs": [
        {
          "internalType": "address",
          "name": "",
          "type": "address"
        }
      ],
      "stateMutability": "view",
      "type": "function"
    },
    {
      "inputs": [
        {
          "internalType": "uint256",
          "name": "itemID",
          "type": "uint256"
        },
        {
          "internalType": "uint256",
          "name": "numberItems",
          "type": "uint256"
        }
      ],
      "name": "redeem",
      "outputs": [],
      "stateMutability": "nonpayable",
      "type": "function"
    },
    {
      "inputs": [],
      "name": "renounceOwnership",
      "outputs": [],
      "stateMutability": "nonpayable",
      "type": "function"
    },
    {
      "inputs": [],
      "name": "symbol",
      "outputs": [
        {
          "internalType": "string",
          "name": "",
          "type": "string"
        }
      ],
      "stateMutability": "view",
      "type": "function"
    },
    {
      "inputs": [],
      "name": "totalSupply",
      "outputs": [
        {
          "internalType": "uint256",
          "name": "",
          "type": "uint256"
        }
      ],
      "stateMutability": "view",
      "type": "function"
    },
    {
      "inputs": [
        {
          "internalType": "address",
          "name": "to",
          "type": "address"
        },
        {
          "internalType": "uint256",
          "name": "amount",
          "type": "uint256"
        }
      ],
      "name": "transfer",
      "outputs": [
        {
          "internalType": "bool",
          "name": "",
          "type": "bool"
        }
      ],
      "stateMutability": "nonpayable",
      "type": "function"
    },
    {
      "inputs": [
        {
          "internalType": "address",
          "name": "from",
          "type": "address"
        },
        {
          "internalType": "address",
          "name": "to",
          "type": "address"
        },
        {
          "internalType": "uint256",
          "name": "amount",
          "type": "uint256"
        }
      ],
      "name": "transferFrom",
      "outputs": [
        {
          "internalType": "bool",
          "name": "",
          "type": "bool"
        }
      ],
      "stateMutability": "nonpayable",
      "type": "function"
    },
    {
      "inputs": [
        {
          "internalType": "address",
          "name": "newOwner",
          "type": "address"
        }
      ],
      "name": "transferOwnership",
      "outputs": [],
      "stateMutability": "nonpayable",
      "type": "function"
    }
  ],
  "bytecode": "0x608060405234801562000010575f80fd5b506040518060400160405280600581526020017f446567656e0000000000000000000000000000000000000000000000000000008152506040518060400160405280600381526020017f44474e000000000000000000000000000000000000000000000000000000000081525081600390816200008e91906200067f565b508060049081620000a091906200067f565b505050620000c3620000b76200035160201b60201c565b6200035860201b60201c565b60405180606001604052806040518060400160405280600681526020017f506f74696f6e0000000000000000000000000000000000000000000000000000815250815260200160038152602001600a81525060065f600181526020019081526020015f205f820151815f0190816200013c91906200067f565b50602082015181600101556040820151816002015590505060405180606001604052806040518060400160405280600b81526020017f526f79616c2053776f7264000000000000000000000000000000000000000000815250815260200160328152602001600a81525060065f600281526020019081526020015f205f820151815f019081620001cd91906200067f565b50602082015181600101556040820151816002015590505060405180606001604052806040518060400160405280600c81526020017f447261676f6e2041726d6f720000000000000000000000000000000000000000815250815260200160238152602001600a81525060065f600381526020019081526020015f205f820151815f0190816200025e91906200067f565b506020820151816001015560408201518160020155905050600760065f600181526020019081526020015f205f01908060018154018082558091505060019003905f5260205f20015f909190919091509081620002bc91906200078c565b50600760065f600281526020019081526020015f205f01908060018154018082558091505060019003905f5260205f20015f9091909190915090816200030391906200078c565b50600760065f600381526020019081526020015f205f01908060018154018082558091505060019003905f5260205f20015f9091909190915090816200034a91906200078c565b506200088a565b5f33905090565b5f60055f9054906101000a900473ffffffffffffffffffffffffffffffffffffffff1690508160055f6101000a81548173ffffffffffffffffffffffffffffffffffffffff021916908373ffffffffffffffffffffffffffffffffffffffff1602179055508173ffffffffffffffffffffffffffffffffffffffff168173ffffffffffffffffffffffffffffffffffffffff167f8be0079c531659141344cd1fd0a4f28419497f9722a3daafe3b4186f6b6457e060405160405180910390a35050565b5f81519050919050565b7f4e487b71000000000000000000000000000000000000000000000000000000005f52604160045260245ffd5b7f4e487b71000000000000000000000000000000000000000000000000000000005f52602260045260245ffd5b5f60028204905060018216806200049757607f821691505b602082108103620004ad57620004ac62000452565b5b50919050565b5f819050815f5260205f209050919050565b5f6020601f8301049050919050565b5f82821b905092915050565b5f60088302620005117fffffffffffffffffffffffffffffffffffffffffffffffffffffffffffffffff82620004d4565b6200051d8683620004d4565b95508019841693508086168417925050509392505050565b5f819050919050565b5f819050919050565b5f62000567620005616200055b8462000535565b6200053e565b62000535565b9050919050565b5f819050919050565b620005828362000547565b6200059a62000591826200056e565b848454620004e0565b825550505050565b5f90565b620005b0620005a2565b620005bd81848462000577565b505050565b5b81811015620005e457620005d85f82620005a6565b600181019050620005c3565b5050565b601f8211156200063357620005fd81620004b3565b6200060884620004c5565b8101602085101562000618578190505b620006306200062785620004c5565b830182620005c2565b50505b505050565b5f82821c905092915050565b5f620006555f198460080262000638565b1980831691505092915050565b5f6200066f838362000644565b9150826002028217905092915050565b6200068a826200041b565b67ffffffffffffffff811115620006a657620006a562000425565b5b620006b282546200047f565b620006bf828285620005e8565b5f60209050601f831160018114620006f5575f8415620006e0578287015190505b620006ec858262000662565b8655506200075b565b601f1984166200070586620004b3565b5f5b828110156200072e5784890151825560018201915060208501945060208101905062000707565b868310156200074e57848901516200074a601f89168262000644565b8355505b6001600288020188555050505b505050505050565b5f8154905062000773816200047f565b9050919050565b5f819050815f5260205f209050919050565b8181036200079c57505062000888565b620007a78262000763565b67ffffffffffffffff811115620007c357620007c262000425565b5b620007cf82546200047f565b620007dc828285620005e8565b5f601f8311600181146200080e575f8415620007f9578287015490505b62000805858262000662565b86555062000881565b601f1984166200081e876200077a565b96506200082b86620004b3565b5f5b8281101562000854578489015482556001820191506001850194506020810190506200082d565b8683101562000874578489015462000870601f89168262000644565b8355505b6001600288020188555050505b5050505050505b565b612ea880620008985f395ff3fe608060405234801561000f575f80fd5b5060043610610156575f3560e01c80637cbc2373116100c1578063b69ef8a81161007a578063b69ef8a814610400578063b7efa8eb1461041e578063d9561a911461044e578063dd62ed3e1461047e578063ec67b45d146104ae578063f2fde38b146104ca57610156565b80637cbc2373146103165780638da5cb5b1461033257806395d89b4114610350578063a25d21d51461036e578063a457c2d7146103a0578063a9059cbb146103d057610156565b80633950935111610113578063395093511461024457806340c10f191461027457806342966c68146102905780634c4df870146102ac57806370a08231146102dc578063715018a61461030c57610156565b806306fdde031461015a578063095ea7b31461017857806318160ddd146101a857806323b872dd146101c65780633129e773146101f6578063313ce56714610226575b5f80fd5b6101626104e6565b60405161016f919061195a565b60405180910390f35b610192600480360381019061018d9190611a18565b610576565b60405161019f9190611a70565b60405180910390f35b6101b0610598565b6040516101bd9190611a98565b60405180910390f35b6101e060048036038101906101db9190611ab1565b6105a1565b6040516101ed9190611a70565b60405180910390f35b610210600480360381019061020b9190611b01565b6105cf565b60405161021d9190611bd0565b60405180910390f35b61022e6106df565b60405161023b9190611c0b565b60405180910390f35b61025e60048036038101906102599190611a18565b6106e7565b60405161026b9190611a70565b60405180910390f35b61028e60048036038101906102899190611a18565b61071d565b005b6102aa60048036038101906102a59190611b01565b610733565b005b6102c660048036038101906102c19190611b01565b6107cd565b6040516102d39190611a98565b60405180910390f35b6102f660048036038101906102f19190611c24565b6107ea565b6040516103039190611a98565b60405180910390f35b61031461082f565b005b610330600480360381019061032b9190611c4f565b610842565b005b61033a610a29565b6040516103479190611c9c565b60405180910390f35b610358610a51565b604051610365919061195a565b60405180910390f35b61038860048036038101906103839190611b01565b610ae1565b60405161039793929190611cb5565b60405180910390f35b6103ba60048036038101906103b59190611a18565b610b8d565b6040516103c79190611a70565b60405180910390f35b6103ea60048036038101906103e59190611a18565b610c02565b6040516103f79190611a70565b60405180910390f35b610408610ca5565b6040516104159190611a98565b60405180910390f35b61043860048036038101906104339190611b01565b610cb4565b6040516104459190611a98565b60405180910390f35b61046860048036038101906104639190611b01565b610cd1565b604051610475919061195a565b60405180910390f35b61049860048036038101906104939190611cf1565b610d74565b6040516104a59190611a98565b60405180910390f35b6104c860048036038101906104c39190611e5b565b610df6565b005b6104e460048036038101906104df9190611c24565b610f12565b005b6060600380546104f590611f08565b80601f016020809104026020016040519081016040528092919081815260200182805461052190611f08565b801561056c5780601f106105435761010080835404028352916020019161056c565b820191905f5260205f20905b81548152906001019060200180831161054f57829003601f168201915b5050505050905090565b5f80610580610f94565b905061058d818585610f9b565b600191505092915050565b5f600254905090565b5f806105ab610f94565b90506105b885828561115e565b6105c38585856111e9565b60019150509392505050565b6105d76118b1565b5f8211610619576040517f08c379a000000000000000000000000000000000000000000000000000000000815260040161061090611f82565b60405180910390fd5b60065f8381526020019081526020015f206040518060600160405290815f8201805461064490611f08565b80601f016020809104026020016040519081016040528092919081815260200182805461067090611f08565b80156106bb5780601f10610692576101008083540402835291602001916106bb565b820191905f5260205f20905b81548152906001019060200180831161069e57829003601f168201915b50505050508152602001600182015481526020016002820154815250509050919050565b5f6012905090565b5f806106f1610f94565b90506107128185856107038589610d74565b61070d9190611fcd565b610f9b565b600191505092915050565b610725611455565b61072f82826114d3565b5050565b5f8111610775576040517f08c379a000000000000000000000000000000000000000000000000000000000815260040161076c90612070565b60405180910390fd5b8061077f336107ea565b10156107c0576040517f08c379a00000000000000000000000000000000000000000000000000000000081526004016107b7906120fe565b60405180910390fd5b6107ca3382611621565b50565b5f60065f8381526020019081526020015f20600101549050919050565b5f805f8373ffffffffffffffffffffffffffffffffffffffff1673ffffffffffffffffffffffffffffffffffffffff1681526020019081526020015f20549050919050565b610837611455565b6108405f6117e4565b565b5f8211610884576040517f08c379a000000000000000000000000000000000000000000000000000000000815260040161087b90612166565b60405180910390fd5b5f81116108c6576040517f08c379a00000000000000000000000000000000000000000000000000000000081526004016108bd906121f4565b60405180910390fd5b5f60065f8481526020019081526020015f20600201540361091c576040517f08c379a00000000000000000000000000000000000000000000000000000000081526004016109139061225c565b60405180910390fd5b8060065f8481526020019081526020015f20600201541015610973576040517f08c379a000000000000000000000000000000000000000000000000000000000815260040161096a906122ea565b60405180910390fd5b60065f8381526020019081526020015f2060010154610991336107ea565b10156109d2576040517f08c379a00000000000000000000000000000000000000000000000000000000081526004016109c990612352565b60405180910390fd5b8060065f8481526020019081526020015f206002015f8282546109f59190612370565b92505081905550610a25338260065f8681526020019081526020015f2060010154610a2091906123a3565b611621565b5050565b5f60055f9054906101000a900473ffffffffffffffffffffffffffffffffffffffff16905090565b606060048054610a6090611f08565b80601f0160208091040260200160405190810160405280929190818152602001828054610a8c90611f08565b8015610ad75780601f10610aae57610100808354040283529160200191610ad7565b820191905f5260205f20905b815481529060010190602001808311610aba57829003601f168201915b5050505050905090565b6006602052805f5260405f205f91509050805f018054610b0090611f08565b80601f0160208091040260200160405190810160405280929190818152602001828054610b2c90611f08565b8015610b775780601f10610b4e57610100808354040283529160200191610b77565b820191905f5260205f20905b815481529060010190602001808311610b5a57829003601f168201915b5050505050908060010154908060020154905083565b5f80610b97610f94565b90505f610ba48286610d74565b905083811015610be9576040517f08c379a0000000000000000000000000000000000000000000000000000000008152600401610be090612454565b60405180910390fd5b610bf68286868403610f9b565b60019250505092915050565b5f808211610c45576040517f08c379a0000000000000000000000000000000000000000000000000000000008152600401610c3c906124e2565b60405180910390fd5b81610c4f336107ea565b1015610c90576040517f08c379a0000000000000000000000000000000000000000000000000000000008152600401610c879061254a565b60405180910390fd5b610c9b3384846111e9565b6001905092915050565b5f610caf336107ea565b905090565b5f60065f8381526020019081526020015f20600201549050919050565b606060065f8381526020019081526020015f205f018054610cf190611f08565b80601f0160208091040260200160405190810160405280929190818152602001828054610d1d90611f08565b8015610d685780601f10610d3f57610100808354040283529160200191610d68565b820191905f5260205f20905b815481529060010190602001808311610d4b57829003601f168201915b50505050509050919050565b5f60015f8473ffffffffffffffffffffffffffffffffffffffff1673ffffffffffffffffffffffffffffffffffffffff1681526020019081526020015f205f8373ffffffffffffffffffffffffffffffffffffffff1673ffffffffffffffffffffffffffffffffffffffff1681526020019081526020015f2054905092915050565b610dfe611455565b5f8411610e40576040517f08c379a0000000000000000000000000000000000000000000000000000000008152600401610e37906125d8565b60405180910390fd5b5f835111610e83576040517f08c379a0000000000000000000000000000000000000000000000000000000008152600401610e7a90612640565b60405180910390fd5b60405180606001604052808481526020018381526020018281525060065f8681526020019081526020015f205f820151815f019081610ec291906127fb565b506020820151816001015560408201518160020155905050600783908060018154018082558091505060019003905f5260205f20015f909190919091509081610f0b91906127fb565b5050505050565b610f1a611455565b5f73ffffffffffffffffffffffffffffffffffffffff168173ffffffffffffffffffffffffffffffffffffffff1603610f88576040517f08c379a0000000000000000000000000000000000000000000000000000000008152600401610f7f9061293a565b60405180910390fd5b610f91816117e4565b50565b5f33905090565b5f73ffffffffffffffffffffffffffffffffffffffff168373ffffffffffffffffffffffffffffffffffffffff1603611009576040517f08c379a0000000000000000000000000000000000000000000000000000000008152600401611000906129c8565b60405180910390fd5b5f73ffffffffffffffffffffffffffffffffffffffff168273ffffffffffffffffffffffffffffffffffffffff1603611077576040517f08c379a000000000000000000000000000000000000000000000000000000000815260040161106e90612a56565b60405180910390fd5b8060015f8573ffffffffffffffffffffffffffffffffffffffff1673ffffffffffffffffffffffffffffffffffffffff1681526020019081526020015f205f8473ffffffffffffffffffffffffffffffffffffffff1673ffffffffffffffffffffffffffffffffffffffff1681526020019081526020015f20819055508173ffffffffffffffffffffffffffffffffffffffff168373ffffffffffffffffffffffffffffffffffffffff167f8c5be1e5ebec7d5bd14f71427d1e84f3dd0314c0f7b2291e5b200ac8c7c3b925836040516111519190611a98565b60405180910390a3505050565b5f6111698484610d74565b90507fffffffffffffffffffffffffffffffffffffffffffffffffffffffffffffffff81146111e357818110156111d5576040517f08c379a00000000000000000000000000000000000000000000000000000000081526004016111cc90612abe565b60405180910390fd5b6111e28484848403610f9b565b5b50505050565b5f73ffffffffffffffffffffffffffffffffffffffff168373ffffffffffffffffffffffffffffffffffffffff1603611257576040517f08c379a000000000000000000000000000000000000000000000000000000000815260040161124e90612b4c565b60405180910390fd5b5f73ffffffffffffffffffffffffffffffffffffffff168273ffffffffffffffffffffffffffffffffffffffff16036112c5576040517f08c379a00000000000000000000000000000000000000000000000000000000081526004016112bc90612bda565b60405180910390fd5b6112d08383836118a7565b5f805f8573ffffffffffffffffffffffffffffffffffffffff1673ffffffffffffffffffffffffffffffffffffffff1681526020019081526020015f2054905081811015611353576040517f08c379a000000000000000000000000000000000000000000000000000000000815260040161134a90612c68565b60405180910390fd5b8181035f808673ffffffffffffffffffffffffffffffffffffffff1673ffffffffffffffffffffffffffffffffffffffff1681526020019081526020015f2081905550815f808573ffffffffffffffffffffffffffffffffffffffff1673ffffffffffffffffffffffffffffffffffffffff1681526020019081526020015f205f82825401925050819055508273ffffffffffffffffffffffffffffffffffffffff168473ffffffffffffffffffffffffffffffffffffffff167fddf252ad1be2c89b69c2b068fc378daa952ba7f163c4a11628f55a4df523b3ef8460405161143c9190611a98565b60405180910390a361144f8484846118ac565b50505050565b61145d610f94565b73ffffffffffffffffffffffffffffffffffffffff1661147b610a29565b73ffffffffffffffffffffffffffffffffffffffff16146114d1576040517f08c379a00000000000000000000000000000000000000000000000000000000081526004016114c890612cd0565b60405180910390fd5b565b5f73ffffffffffffffffffffffffffffffffffffffff168273ffffffffffffffffffffffffffffffffffffffff1603611541576040517f08c379a000000000000000000000000000000000000000000000000000000000815260040161153890612d38565b60405180910390fd5b61154c5f83836118a7565b8060025f82825461155d9190611fcd565b92505081905550805f808473ffffffffffffffffffffffffffffffffffffffff1673ffffffffffffffffffffffffffffffffffffffff1681526020019081526020015f205f82825401925050819055508173ffffffffffffffffffffffffffffffffffffffff165f73ffffffffffffffffffffffffffffffffffffffff167fddf252ad1be2c89b69c2b068fc378daa952ba7f163c4a11628f55a4df523b3ef8360405161160a9190611a98565b60405180910390a361161d5f83836118ac565b5050565b5f73ffffffffffffffffffffffffffffffffffffffff168273ffffffffffffffffffffffffffffffffffffffff160361168f576040517f08c379a000000000000000000000000000000000000000000000000000000000815260040161168690612dc6565b60405180910390fd5b61169a825f836118a7565b5f805f8473ffffffffffffffffffffffffffffffffffffffff1673ffffffffffffffffffffffffffffffffffffffff1681526020019081526020015f205490508181101561171d576040517f08c379a000000000000000000000000000000000000000000000000000000000815260040161171490612e54565b60405180910390fd5b8181035f808573ffffffffffffffffffffffffffffffffffffffff1673ffffffffffffffffffffffffffffffffffffffff1681526020019081526020015f20819055508160025f82825403925050819055505f73ffffffffffffffffffffffffffffffffffffffff168373ffffffffffffffffffffffffffffffffffffffff167fddf252ad1be2c89b69c2b068fc378daa952ba7f163c4a11628f55a4df523b3ef846040516117cc9190611a98565b60405180910390a36117df835f846118ac565b505050565b5f60055f9054906101000a900473ffffffffffffffffffffffffffffffffffffffff1690508160055f6101000a81548173ffffffffffffffffffffffffffffffffffffffff021916908373ffffffffffffffffffffffffffffffffffffffff1602179055508173ffffffffffffffffffffffffffffffffffffffff168173ffffffffffffffffffffffffffffffffffffffff167f8be0079c531659141344cd1fd0a4f28419497f9722a3daafe3b4186f6b6457e060405160405180910390a35050565b505050565b505050565b6040518060600160405280606081526020015f81526020015f81525090565b5f81519050919050565b5f82825260208201905092915050565b5f5b838110156119075780820151818401526020810190506118ec565b5f8484015250505050565b5f601f19601f8301169050919050565b5f61192c826118d0565b61193681856118da565b93506119468185602086016118ea565b61194f81611912565b840191505092915050565b5f6020820190508181035f8301526119728184611922565b905092915050565b5f604051905090565b5f80fd5b5f80fd5b5f73ffffffffffffffffffffffffffffffffffffffff82169050919050565b5f6119b48261198b565b9050919050565b6119c4816119aa565b81146119ce575f80fd5b50565b5f813590506119df816119bb565b92915050565b5f819050919050565b6119f7816119e5565b8114611a01575f80fd5b50565b5f81359050611a12816119ee565b92915050565b5f8060408385031215611a2e57611a2d611983565b5b5f611a3b858286016119d1565b9250506020611a4c85828601611a04565b9150509250929050565b5f8115159050919050565b611a6a81611a56565b82525050565b5f602082019050611a835f830184611a61565b92915050565b611a92816119e5565b82525050565b5f602082019050611aab5f830184611a89565b92915050565b5f805f60608486031215611ac857611ac7611983565b5b5f611ad5868287016119d1565b9350506020611ae6868287016119d1565b9250506040611af786828701611a04565b9150509250925092565b5f60208284031215611b1657611b15611983565b5b5f611b2384828501611a04565b91505092915050565b5f82825260208201905092915050565b5f611b46826118d0565b611b508185611b2c565b9350611b608185602086016118ea565b611b6981611912565b840191505092915050565b611b7d816119e5565b82525050565b5f606083015f8301518482035f860152611b9d8282611b3c565b9150506020830151611bb26020860182611b74565b506040830151611bc56040860182611b74565b508091505092915050565b5f6020820190508181035f830152611be88184611b83565b905092915050565b5f60ff82169050919050565b611c0581611bf0565b82525050565b5f602082019050611c1e5f830184611bfc565b92915050565b5f60208284031215611c3957611c38611983565b5b5f611c46848285016119d1565b91505092915050565b5f8060408385031215611c6557611c64611983565b5b5f611c7285828601611a04565b9250506020611c8385828601611a04565b9150509250929050565b611c96816119aa565b82525050565b5f602082019050611caf5f830184611c8d565b92915050565b5f6060820190508181035f830152611ccd8186611922565b9050611cdc6020830185611a89565b611ce96040830184611a89565b949350505050565b5f8060408385031215611d0757611d06611983565b5b5f611d14858286016119d1565b9250506020611d25858286016119d1565b9150509250929050565b5f80fd5b5f80fd5b7f4e487b71000000000000000000000000000000000000000000000000000000005f52604160045260245ffd5b611d6d82611912565b810181811067ffffffffffffffff82111715611d8c57611d8b611d37565b5b80604052505050565b5f611d9e61197a565b9050611daa8282611d64565b919050565b5f67ffffffffffffffff821115611dc957611dc8611d37565b5b611dd282611912565b9050602081019050919050565b828183375f83830152505050565b5f611dff611dfa84611daf565b611d95565b905082815260208101848484011115611e1b57611e1a611d33565b5b611e26848285611ddf565b509392505050565b5f82601f830112611e4257611e41611d2f565b5b8135611e52848260208601611ded565b91505092915050565b5f805f8060808587031215611e7357611e72611983565b5b5f611e8087828801611a04565b945050602085013567ffffffffffffffff811115611ea157611ea0611987565b5b611ead87828801611e2e565b9350506040611ebe87828801611a04565b9250506060611ecf87828801611a04565b91505092959194509250565b7f4e487b71000000000000000000000000000000000000000000000000000000005f52602260045260245ffd5b5f6002820490506001821680611f1f57607f821691505b602082108103611f3257611f31611edb565b5b50919050565b7f537570706c792076616c6964204974656d2049440000000000000000000000005f82015250565b5f611f6c6014836118da565b9150611f7782611f38565b602082019050919050565b5f6020820190508181035f830152611f9981611f60565b9050919050565b7f4e487b71000000000000000000000000000000000000000000000000000000005f52601160045260245ffd5b5f611fd7826119e5565b9150611fe2836119e5565b9250828201905080821115611ffa57611ff9611fa0565b5b92915050565b7f4275726e20616d6f756e74206f66206d6f7265207468616e20302044474e20695f8201527f7320726571756972656421000000000000000000000000000000000000000000602082015250565b5f61205a602b836118da565b915061206582612000565b604082019050919050565b5f6020820190508181035f8301526120878161204e565b9050919050565b7f496e73756666696369656e7420616d6f756e74206f662044474e20746f2062755f8201527f726e000000000000000000000000000000000000000000000000000000000000602082015250565b5f6120e86022836118da565b91506120f38261208e565b604082019050919050565b5f6020820190508181035f830152612115816120dc565b9050919050565b7f537570706c7920612076616c6964204974656d204944000000000000000000005f82015250565b5f6121506016836118da565b915061215b8261211c565b602082019050919050565b5f6020820190508181035f83015261217d81612144565b9050919050565b7f4e6f2e206f66204974656d7320746f205075726368617365206d7573742062655f8201527f206d6f7265207468616e20300000000000000000000000000000000000000000602082015250565b5f6121de602c836118da565b91506121e982612184565b604082019050919050565b5f6020820190508181035f83015261220b816121d2565b9050919050565b7f4974656d206f7574206f662053746f636b0000000000000000000000000000005f82015250565b5f6122466011836118da565b915061225182612212565b602082019050919050565b5f6020820190508181035f8301526122738161223a565b9050919050565b7f43616e6e6f74207075726368617365206d6f7265207468616e207468652063755f8201527f7272656e742073746f636b210000000000000000000000000000000000000000602082015250565b5f6122d4602c836118da565b91506122df8261227a565b604082019050919050565b5f6020820190508181035f830152612301816122c8565b9050919050565b7f496e73756666696369656e742044474e20546f6b656e730000000000000000005f82015250565b5f61233c6017836118da565b915061234782612308565b602082019050919050565b5f6020820190508181035f83015261236981612330565b9050919050565b5f61237a826119e5565b9150612385836119e5565b925082820390508181111561239d5761239c611fa0565b5b92915050565b5f6123ad826119e5565b91506123b8836119e5565b92508282026123c6816119e5565b915082820484148315176123dd576123dc611fa0565b5b5092915050565b7f45524332303a2064656372656173656420616c6c6f77616e63652062656c6f775f8201527f207a65726f000000000000000000000000000000000000000000000000000000602082015250565b5f61243e6025836118da565b9150612449826123e4565b604082019050919050565b5f6020820190508181035f83015261246b81612432565b9050919050565b7f5472616e73666572206f66206d6f7265207468616e20302044474e20697320725f8201527f6571756972656421000000000000000000000000000000000000000000000000602082015250565b5f6124cc6028836118da565b91506124d782612472565b604082019050919050565b5f6020820190508181035f8301526124f9816124c0565b9050919050565b7f496e73756666696369656e742044474e20746f207472616e73666572000000005f82015250565b5f612534601c836118da565b915061253f82612500565b602082019050919050565b5f6020820190508181035f83015261256181612528565b9050919050565b7f4974656d204944205265676973746572206d75737420626520677265617465725f8201527f207468616e203000000000000000000000000000000000000000000000000000602082015250565b5f6125c26027836118da565b91506125cd82612568565b604082019050919050565b5f6020820190508181035f8301526125ef816125b6565b9050919050565b7f4974656d204e616d652063616e6e6f7420626520656d707479000000000000005f82015250565b5f61262a6019836118da565b9150612635826125f6565b602082019050919050565b5f6020820190508181035f8301526126578161261e565b9050919050565b5f819050815f5260205f209050919050565b5f6020601f8301049050919050565b5f82821b905092915050565b5f600883026126ba7fffffffffffffffffffffffffffffffffffffffffffffffffffffffffffffffff8261267f565b6126c4868361267f565b95508019841693508086168417925050509392505050565b5f819050919050565b5f6126ff6126fa6126f5846119e5565b6126dc565b6119e5565b9050919050565b5f819050919050565b612718836126e5565b61272c61272482612706565b84845461268b565b825550505050565b5f90565b612740612734565b61274b81848461270f565b505050565b5b8181101561276e576127635f82612738565b600181019050612751565b5050565b601f8211156127b3576127848161265e565b61278d84612670565b8101602085101561279c578190505b6127b06127a885612670565b830182612750565b50505b505050565b5f82821c905092915050565b5f6127d35f19846008026127b8565b1980831691505092915050565b5f6127eb83836127c4565b9150826002028217905092915050565b612804826118d0565b67ffffffffffffffff81111561281d5761281c611d37565b5b6128278254611f08565b612832828285612772565b5f60209050601f831160018114612863575f8415612851578287015190505b61285b85826127e0565b8655506128c2565b601f1984166128718661265e565b5f5b8281101561289857848901518255600182019150602085019450602081019050612873565b868310156128b557848901516128b1601f8916826127c4565b8355505b6001600288020188555050505b505050505050565b7f4f776e61626c653a206e6577206f776e657220697320746865207a65726f20615f8201527f6464726573730000000000000000000000000000000000000000000000000000602082015250565b5f6129246026836118da565b915061292f826128ca565b604082019050919050565b5f6020820190508181035f83015261295181612918565b9050919050565b7f45524332303a20617070726f76652066726f6d20746865207a65726f206164645f8201527f7265737300000000000000000000000000000000000000000000000000000000602082015250565b5f6129b26024836118da565b91506129bd82612958565b604082019050919050565b5f6020820190508181035f8301526129df816129a6565b9050919050565b7f45524332303a20617070726f766520746f20746865207a65726f2061646472655f8201527f7373000000000000000000000000000000000000000000000000000000000000602082015250565b5f612a406022836118da565b9150612a4b826129e6565b604082019050919050565b5f6020820190508181035f830152612a6d81612a34565b9050919050565b7f45524332303a20696e73756666696369656e7420616c6c6f77616e63650000005f82015250565b5f612aa8601d836118da565b9150612ab382612a74565b602082019050919050565b5f6020820190508181035f830152612ad581612a9c565b9050919050565b7f45524332303a207472616e736665722066726f6d20746865207a65726f2061645f8201527f6472657373000000000000000000000000000000000000000000000000000000602082015250565b5f612b366025836118da565b9150612b4182612adc565b604082019050919050565b5f6020820190508181035f830152612b6381612b2a565b9050919050565b7f45524332303a207472616e7366657220746f20746865207a65726f20616464725f8201527f6573730000000000000000000000000000000000000000000000000000000000602082015250565b5f612bc46023836118da565b9150612bcf82612b6a565b604082019050919050565b5f6020820190508181035f830152612bf181612bb8565b9050919050565b7f45524332303a207472616e7366657220616d6f756e74206578636565647320625f8201527f616c616e63650000000000000000000000000000000000000000000000000000602082015250565b5f612c526026836118da565b9150612c5d82612bf8565b604082019050919050565b5f6020820190508181035f830152612c7f81612c46565b9050919050565b7f4f776e61626c653a2063616c6c6572206973206e6f7420746865206f776e65725f82015250565b5f612cba6020836118da565b9150612cc582612c86565b602082019050919050565b5f6020820190508181035f830152612ce781612cae565b9050919050565b7f45524332303a206d696e7420746f20746865207a65726f2061646472657373005f82015250565b5f612d22601f836118da565b9150612d2d82612cee565b602082019050919050565b5f6020820190508181035f830152612d4f81612d16565b9050919050565b7f45524332303a206275726e2066726f6d20746865207a65726f206164647265735f8201527f7300000000000000000000000000000000000000000000000000000000000000602082015250565b5f612db06021836118da565b9150612dbb82612d56565b604082019050919050565b5f6020820190508181035f830152612ddd81612da4565b9050919050565b7f45524332303a206275726e20616d6f756e7420657863656564732062616c616e5f8201527f6365000000000000000000000000000000000000000000000000000000000000602082015250565b5f612e3e6022836118da565b9150612e4982612de4565b604082019050919050565b5f6020820190508181035f830152612e6b81612e32565b905091905056fea2646970667358221220757ed269742f00ee720031fee376bb3f1de41eb192990cd1b136b7e83d8567de64736f6c63430008140033",
  "linkReferences": {},
  "deployedLinkReferences": {}
}