{
  "_format": "hh-sol-artifact-1",
  "contractName": "DegenToken",
  "sourceName": "contracts/DegenToken.sol",
  "abi": [
    {
      "inputs": [],
      "stateMutability": "nonpayable",
      "type": "constructor"
    },
    {
      "anonymous": false,
      "inputs": [
        {
          "indexed": true,
          "internalType": "address",
          "name": "owner",
          "type": "address"
        },
        {
          "indexed": true,
          "internalType": "address",
          "name": "spender",
          "type": "address"
        },
        {
          "indexed": false,
          "internalType": "uint256",
          "name": "value",
          "type": "uint256"
        }
      ],
      "name": "Approval",
      "type": "event"
    },
    {
      "anonymous": false,
      "inputs": [
        {
          "indexed": true,
          "internalType": "address",
          "name": "previousOwner",
          "type": "address"
        },
        {
          "indexed": true,
          "internalType": "address",
          "name": "newOwner",
          "type": "address"
        }
      ],
      "name": "OwnershipTransferred",
      "type": "event"
    },
    {
      "anonymous": false,
      "inputs": [
        {
          "indexed": true,
          "internalType": "address",
          "name": "from",
          "type": "address"
        },
        {
          "indexed": true,
          "internalType": "address",
          "name": "to",
          "type": "address"
        },
        {
          "indexed": false,
          "internalType": "uint256",
          "name": "value",
          "type": "uint256"
        }
      ],
      "name": "Transfer",
      "type": "event"
    },
    {
      "inputs": [
        {
          "internalType": "uint256",
          "name": "itemID",
          "type": "uint256"
        },
        {
          "internalType": "string",
          "name": "_name",
          "type": "string"
        },
        {
          "internalType": "uint256",
          "name": "_price",
          "type": "uint256"
        },
        {
          "internalType": "uint256",
          "name": "_stock",
          "type": "uint256"
        }
      ],
      "name": "addItem",
      "outputs": [],
      "stateMutability": "nonpayable",
      "type": "function"
    },
    {
      "inputs": [
        {
          "internalType": "address",
          "name": "owner",
          "type": "address"
        },
        {
          "internalType": "address",
          "name": "spender",
          "type": "address"
        }
      ],
      "name": "allowance",
      "outputs": [
        {
          "internalType": "uint256",
          "name": "",
          "type": "uint256"
        }
      ],
      "stateMutability": "view",
      "type": "function"
    },
    {
      "inputs": [
        {
          "internalType": "address",
          "name": "spender",
          "type": "address"
        },
        {
          "internalType": "uint256",
          "name": "amount",
          "type": "uint256"
        }
      ],
      "name": "approve",
      "outputs": [
        {
          "internalType": "bool",
          "name": "",
          "type": "bool"
        }
      ],
      "stateMutability": "nonpayable",
      "type": "function"
    },
    {
      "inputs": [],
      "name": "balance",
      "outputs": [
        {
          "internalType": "uint256",
          "name": "",
          "type": "uint256"
        }
      ],
      "stateMutability": "view",
      "type": "function"
    },
    {
      "inputs": [
        {
          "internalType": "address",
          "name": "account",
          "type": "address"
        }
      ],
      "name": "balanceOf",
      "outputs": [
        {
          "internalType": "uint256",
          "name": "",
          "type": "uint256"
        }
      ],
      "stateMutability": "view",
      "type": "function"
    },
    {
      "inputs": [
        {
          "internalType": "uint256",
          "name": "amount",
          "type": "uint256"
        }
      ],
      "name": "burn",
      "outputs": [],
      "stateMutability": "nonpayable",
      "type": "function"
    },
    {
      "inputs": [],
      "name": "decimals",
      "outputs": [
        {
          "internalType": "uint8",
          "name": "",
          "type": "uint8"
        }
      ],
      "stateMutability": "view",
      "type": "function"
    },
    {
      "inputs": [
        {
          "internalType": "address",
          "name": "spender",
          "type": "address"
        },
        {
          "internalType": "uint256",
          "name": "subtractedValue",
          "type": "uint256"
        }
      ],
      "name": "decreaseAllowance",
      "outputs": [
        {
          "internalType": "bool",
          "name": "",
          "type": "bool"
        }
      ],
      "stateMutability": "nonpayable",
      "type": "function"
    },
    {
      "inputs": [
        {
          "internalType": "uint256",
          "name": "",
          "type": "uint256"
        }
      ],
      "name": "gameStore",
      "outputs": [
        {
          "internalType": "string",
          "name": "name",
          "type": "string"
        },
        {
          "internalType": "uint256",
          "name": "price",
          "type": "uint256"
        },
        {
          "internalType": "uint256",
          "name": "stock",
          "type": "uint256"
        }
      ],
      "stateMutability": "view",
      "type": "function"
    },
    {
      "inputs": [
        {
          "internalType": "uint256",
          "name": "itemID",
          "type": "uint256"
        }
      ],
      "name": "getItem",
      "outputs": [
        {
          "components": [
            {
              "internalType": "string",
              "name": "name",
              "type": "string"
            },
            {
              "internalType": "uint256",
              "name": "price",
              "type": "uint256"
            },
            {
              "internalType": "uint256",
              "name": "stock",
              "type": "uint256"
            }
          ],
          "internalType": "struct DegenToken.Item",
          "name": "",
          "type": "tuple"
        }
      ],
      "stateMutability": "view",
      "type": "function"
    },
    {
      "inputs": [
        {
          "internalType": "uint256",
          "name": "itemID",
          "type": "uint256"
        }
      ],
      "name": "getItemName",
      "outputs": [
        {
          "internalType": "string",
          "name": "",
          "type": "string"
        }
      ],
      "stateMutability": "view",
      "type": "function"
    },
    {
      "inputs": [
        {
          "internalType": "uint256",
          "name": "itemID",
          "type": "uint256"
        }
      ],
      "name": "getItemPrice",
      "outputs": [
        {
          "internalType": "uint256",
          "name": "",
          "type": "uint256"
        }
      ],
      "stateMutability": "view",
      "type": "function"
    },
    {
      "inputs": [
        {
          "internalType": "uint256",
          "name": "itemID",
          "type": "uint256"
        }
      ],
      "name": "getItemStock",
      "outputs": [
        {
          "internalType": "uint256",
          "name": "",
          "type": "uint256"
        }
      ],
      "stateMutability": "view",
      "type": "function"
    },
    {
      "inputs": [
        {
          "internalType": "address",
          "name": "spender",
          "type": "address"
        },
        {
          "internalType": "uint256",
          "name": "addedValue",
          "type": "uint256"
        }
      ],
      "name": "increaseAllowance",
      "outputs": [
        {
          "internalType": "bool",
          "name": "",
          "type": "bool"
        }
      ],
      "stateMutability": "nonpayable",
      "type": "function"
    },
    {
      "inputs": [
        {
          "internalType": "address",
          "name": "to",
          "type": "address"
        },
        {
          "internalType": "uint256",
          "name": "amount",
          "type": "uint256"
        }
      ],
      "name": "mint",
      "outputs": [],
      "stateMutability": "nonpayable",
      "type": "function"
    },
    {
      "inputs": [],
      "name": "name",
      "outputs": [
        {
          "internalType": "string",
          "name": "",
          "type": "string"
        }
      ],
      "stateMutability": "view",
      "type": "function"
    },
    {
      "inputs": [],
      "name": "owner",
      "outputs": [
        {
          "internalType": "address",
          "name": "",
          "type": "address"
        }
      ],
      "stateMutability": "view",
      "type": "function"
    },
    {
      "inputs": [
        {
          "internalType": "uint256",
          "name": "itemID",
          "type": "uint256"
        },
        {
          "internalType": "uint256",
          "name": "numberItems",
          "type": "uint256"
        }
      ],
      "name": "redeem",
      "outputs": [],
      "stateMutability": "nonpayable",
      "type": "function"
    },
    {
      "inputs": [],
      "name": "renounceOwnership",
      "outputs": [],
      "stateMutability": "nonpayable",
      "type": "function"
    },
    {
      "inputs": [],
      "name": "symbol",
      "outputs": [
        {
          "internalType": "string",
          "name": "",
          "type": "string"
        }
      ],
      "stateMutability": "view",
      "type": "function"
    },
    {
      "inputs": [],
      "name": "totalSupply",
      "outputs": [
        {
          "internalType": "uint256",
          "name": "",
          "type": "uint256"
        }
      ],
      "stateMutability": "view",
      "type": "function"
    },
    {
      "inputs": [
        {
          "internalType": "address",
          "name": "to",
          "type": "address"
        },
        {
          "internalType": "uint256",
          "name": "amount",
          "type": "uint256"
        }
      ],
      "name": "transfer",
      "outputs": [
        {
          "internalType": "bool",
          "name": "",
          "type": "bool"
        }
      ],
      "stateMutability": "nonpayable",
      "type": "function"
    },
    {
      "inputs": [
        {
          "internalType": "address",
          "name": "from",
          "type": "address"
        },
        {
          "internalType": "address",
          "name": "to",
          "type": "address"
        },
        {
          "internalType": "uint256",
          "name": "amount",
          "type": "uint256"
        }
      ],
      "name": "transferFrom",
      "outputs": [
        {
          "internalType": "bool",
          "name": "",
          "type": "bool"
        }
      ],
      "stateMutability": "nonpayable",
      "type": "function"
    },
    {
      "inputs": [
        {
          "internalType": "address",
          "name": "newOwner",
          "type": "address"
        }
      ],
      "name": "transferOwnership",
      "outputs": [],
      "stateMutability": "nonpayable",
      "type": "function"
    }
  ],
  "bytecode": "0x608060405234801561000f575f5ffd5b506040518060400160405280600581526020017f446567656e0000000000000000000000000000000000000000000000000000008152506040518060400160405280600381526020017f44474e0000000000000000000000000000000000000000000000000000000000815250816003908161008b9190610642565b50806004908161009b9190610642565b5050506100ba6100af61033b60201b60201c565b61034260201b60201c565b60405180606001604052806040518060400160405280600681526020017f506f74696f6e0000000000000000000000000000000000000000000000000000815250815260200160038152602001600a81525060065f600181526020019081526020015f205f820151815f0190816101319190610642565b50602082015181600101556040820151816002015590505060405180606001604052806040518060400160405280600b81526020017f526f79616c2053776f7264000000000000000000000000000000000000000000815250815260200160328152602001600a81525060065f600281526020019081526020015f205f820151815f0190816101c09190610642565b50602082015181600101556040820151816002015590505060405180606001604052806040518060400160405280600c81526020017f447261676f6e2041726d6f720000000000000000000000000000000000000000815250815260200160238152602001600a81525060065f600381526020019081526020015f205f820151815f01908161024f9190610642565b506020820151816001015560408201518160020155905050600760065f600181526020019081526020015f205f01908060018154018082558091505060019003905f5260205f20015f9091909190915090816102ab9190610738565b50600760065f600281526020019081526020015f205f01908060018154018082558091505060019003905f5260205f20015f9091909190915090816102f09190610738565b50600760065f600381526020019081526020015f205f01908060018154018082558091505060019003905f5260205f20015f9091909190915090816103359190610738565b5061081d565b5f33905090565b5f60055f9054906101000a900473ffffffffffffffffffffffffffffffffffffffff1690508160055f6101000a81548173ffffffffffffffffffffffffffffffffffffffff021916908373ffffffffffffffffffffffffffffffffffffffff1602179055508173ffffffffffffffffffffffffffffffffffffffff168173ffffffffffffffffffffffffffffffffffffffff167f8be0079c531659141344cd1fd0a4f28419497f9722a3daafe3b4186f6b6457e060405160405180910390a35050565b5f81519050919050565b7f4e487b71000000000000000000000000000000000000000000000000000000005f52604160045260245ffd5b7f4e487b71000000000000000000000000000000000000000000000000000000005f52602260045260245ffd5b5f600282049050600182168061048057607f821691505b6020821081036104935761049261043c565b5b50919050565b5f819050815f5260205f209050919050565b5f6020601f8301049050919050565b5f82821b905092915050565b5f600883026104f57fffffffffffffffffffffffffffffffffffffffffffffffffffffffffffffffff826104ba565b6104ff86836104ba565b95508019841693508086168417925050509392505050565b5f819050919050565b5f819050919050565b5f61054361053e61053984610517565b610520565b610517565b9050919050565b5f819050919050565b61055c83610529565b6105706105688261054a565b8484546104c6565b825550505050565b5f5f905090565b610587610578565b610592818484610553565b505050565b5b818110156105b5576105aa5f8261057f565b600181019050610598565b5050565b601f8211156105fa576105cb81610499565b6105d4846104ab565b810160208510156105e3578190505b6105f76105ef856104ab565b830182610597565b50505b505050565b5f82821c905092915050565b5f61061a5f19846008026105ff565b1980831691505092915050565b5f610632838361060b565b9150826002028217905092915050565b61064b82610405565b67ffffffffffffffff8111156106645761066361040f565b5b61066e8254610469565b6106798282856105b9565b5f60209050601f8311600181146106aa575f8415610698578287015190505b6106a28582610627565b865550610709565b601f1984166106b886610499565b5f5b828110156106df578489015182556001820191506020850194506020810190506106ba565b868310156106fc57848901516106f8601f89168261060b565b8355505b6001600288020188555050505b505050505050565b5f8154905061071f81610469565b9050919050565b5f819050815f5260205f209050919050565b81810361074657505061081b565b61074f82610711565b67ffffffffffffffff8111156107685761076761040f565b5b6107728254610469565b61077d8282856105b9565b5f601f8311600181146107aa575f8415610798578287015490505b6107a28582610627565b865550610814565b601f1984166107b887610726565b96506107c386610499565b5f5b828110156107ea578489015482556001820191506001850194506020810190506107c5565b868310156108075784890154610803601f89168261060b565b8355505b6001600288020188555050505b5050505050505b565b612e918061082a5f395ff3fe608060405234801561000f575f5ffd5b5060043610610156575f3560e01c80637cbc2373116100c1578063b69ef8a81161007a578063b69ef8a814610400578063b7efa8eb1461041e578063d9561a911461044e578063dd62ed3e1461047e578063ec67b45d146104ae578063f2fde38b146104ca57610156565b80637cbc2373146103165780638da5cb5b1461033257806395d89b4114610350578063a25d21d51461036e578063a457c2d7146103a0578063a9059cbb146103d057610156565b80633950935111610113578063395093511461024457806340c10f191461027457806342966c68146102905780634c4df870146102ac57806370a08231146102dc578063715018a61461030c57610156565b806306fdde031461015a578063095ea7b31461017857806318160ddd146101a857806323b872dd146101c65780633129e773146101f6578063313ce56714610226575b5f5ffd5b6101626104e6565b60405161016f9190611940565b60405180910390f35b610192600480360381019061018d91906119fe565b610576565b60405161019f9190611a56565b60405180910390f35b6101b0610598565b6040516101bd9190611a7e565b60405180910390f35b6101e060048036038101906101db9190611a97565b6105a1565b6040516101ed9190611a56565b60405180910390f35b610210600480360381019061020b9190611ae7565b6105cf565b60405161021d9190611bb6565b60405180910390f35b61022e6106df565b60405161023b9190611bf1565b60405180910390f35b61025e600480360381019061025991906119fe565b6106e7565b60405161026b9190611a56565b60405180910390f35b61028e600480360381019061028991906119fe565b61071d565b005b6102aa60048036038101906102a59190611ae7565b610733565b005b6102c660048036038101906102c19190611ae7565b6107cd565b6040516102d39190611a7e565b60405180910390f35b6102f660048036038101906102f19190611c0a565b6107ea565b6040516103039190611a7e565b60405180910390f35b61031461082f565b005b610330600480360381019061032b9190611c35565b610842565b005b61033a610a29565b6040516103479190611c82565b60405180910390f35b610358610a51565b6040516103659190611940565b60405180910390f35b61038860048036038101906103839190611ae7565b610ae1565b60405161039793929190611c9b565b60405180910390f35b6103ba60048036038101906103b591906119fe565b610b8d565b6040516103c79190611a56565b60405180910390f35b6103ea60048036038101906103e591906119fe565b610c02565b6040516103f79190611a56565b60405180910390f35b610408610ca5565b6040516104159190611a7e565b60405180910390f35b61043860048036038101906104339190611ae7565b610cb4565b6040516104459190611a7e565b60405180910390f35b61046860048036038101906104639190611ae7565b610cd1565b6040516104759190611940565b60405180910390f35b61049860048036038101906104939190611cd7565b610d74565b6040516104a59190611a7e565b60405180910390f35b6104c860048036038101906104c39190611e41565b610df6565b005b6104e460048036038101906104df9190611c0a565b610f12565b005b6060600380546104f590611eee565b80601f016020809104026020016040519081016040528092919081815260200182805461052190611eee565b801561056c5780601f106105435761010080835404028352916020019161056c565b820191905f5260205f20905b81548152906001019060200180831161054f57829003601f168201915b5050505050905090565b5f5f610580610f94565b905061058d818585610f9b565b600191505092915050565b5f600254905090565b5f5f6105ab610f94565b90506105b885828561115e565b6105c38585856111e9565b60019150509392505050565b6105d76118b1565b5f8211610619576040517f08c379a000000000000000000000000000000000000000000000000000000000815260040161061090611f68565b60405180910390fd5b60065f8381526020019081526020015f206040518060600160405290815f8201805461064490611eee565b80601f016020809104026020016040519081016040528092919081815260200182805461067090611eee565b80156106bb5780601f10610692576101008083540402835291602001916106bb565b820191905f5260205f20905b81548152906001019060200180831161069e57829003601f168201915b50505050508152602001600182015481526020016002820154815250509050919050565b5f6012905090565b5f5f6106f1610f94565b90506107128185856107038589610d74565b61070d9190611fb3565b610f9b565b600191505092915050565b610725611455565b61072f82826114d3565b5050565b5f8111610775576040517f08c379a000000000000000000000000000000000000000000000000000000000815260040161076c90612056565b60405180910390fd5b8061077f336107ea565b10156107c0576040517f08c379a00000000000000000000000000000000000000000000000000000000081526004016107b7906120e4565b60405180910390fd5b6107ca3382611621565b50565b5f60065f8381526020019081526020015f20600101549050919050565b5f5f5f8373ffffffffffffffffffffffffffffffffffffffff1673ffffffffffffffffffffffffffffffffffffffff1681526020019081526020015f20549050919050565b610837611455565b6108405f6117e4565b565b5f8211610884576040517f08c379a000000000000000000000000000000000000000000000000000000000815260040161087b9061214c565b60405180910390fd5b5f81116108c6576040517f08c379a00000000000000000000000000000000000000000000000000000000081526004016108bd906121da565b60405180910390fd5b5f60065f8481526020019081526020015f20600201540361091c576040517f08c379a000000000000000000000000000000000000000000000000000000000815260040161091390612242565b60405180910390fd5b8060065f8481526020019081526020015f20600201541015610973576040517f08c379a000000000000000000000000000000000000000000000000000000000815260040161096a906122d0565b60405180910390fd5b60065f8381526020019081526020015f2060010154610991336107ea565b10156109d2576040517f08c379a00000000000000000000000000000000000000000000000000000000081526004016109c990612338565b60405180910390fd5b8060065f8481526020019081526020015f206002015f8282546109f59190612356565b92505081905550610a25338260065f8681526020019081526020015f2060010154610a209190612389565b611621565b5050565b5f60055f9054906101000a900473ffffffffffffffffffffffffffffffffffffffff16905090565b606060048054610a6090611eee565b80601f0160208091040260200160405190810160405280929190818152602001828054610a8c90611eee565b8015610ad75780601f10610aae57610100808354040283529160200191610ad7565b820191905f5260205f20905b815481529060010190602001808311610aba57829003601f168201915b5050505050905090565b6006602052805f5260405f205f91509050805f018054610b0090611eee565b80601f0160208091040260200160405190810160405280929190818152602001828054610b2c90611eee565b8015610b775780601f10610b4e57610100808354040283529160200191610b77565b820191905f5260205f20905b815481529060010190602001808311610b5a57829003601f168201915b5050505050908060010154908060020154905083565b5f5f610b97610f94565b90505f610ba48286610d74565b905083811015610be9576040517f08c379a0000000000000000000000000000000000000000000000000000000008152600401610be09061243a565b60405180910390fd5b610bf68286868403610f9b565b60019250505092915050565b5f5f8211610c45576040517f08c379a0000000000000000000000000000000000000000000000000000000008152600401610c3c906124c8565b60405180910390fd5b81610c4f336107ea565b1015610c90576040517f08c379a0000000000000000000000000000000000000000000000000000000008152600401610c8790612530565b60405180910390fd5b610c9b3384846111e9565b6001905092915050565b5f610caf336107ea565b905090565b5f60065f8381526020019081526020015f20600201549050919050565b606060065f8381526020019081526020015f205f018054610cf190611eee565b80601f0160208091040260200160405190810160405280929190818152602001828054610d1d90611eee565b8015610d685780601f10610d3f57610100808354040283529160200191610d68565b820191905f5260205f20905b815481529060010190602001808311610d4b57829003601f168201915b50505050509050919050565b5f60015f8473ffffffffffffffffffffffffffffffffffffffff1673ffffffffffffffffffffffffffffffffffffffff1681526020019081526020015f205f8373ffffffffffffffffffffffffffffffffffffffff1673ffffffffffffffffffffffffffffffffffffffff1681526020019081526020015f2054905092915050565b610dfe611455565b5f8411610e40576040517f08c379a0000000000000000000000000000000000000000000000000000000008152600401610e37906125be565b60405180910390fd5b5f835111610e83576040517f08c379a0000000000000000000000000000000000000000000000000000000008152600401610e7a90612626565b60405180910390fd5b60405180606001604052808481526020018381526020018281525060065f8681526020019081526020015f205f820151815f019081610ec291906127e4565b506020820151816001015560408201518160020155905050600783908060018154018082558091505060019003905f5260205f20015f909190919091509081610f0b91906127e4565b5050505050565b610f1a611455565b5f73ffffffffffffffffffffffffffffffffffffffff168173ffffffffffffffffffffffffffffffffffffffff1603610f88576040517f08c379a0000000000000000000000000000000000000000000000000000000008152600401610f7f90612923565b60405180910390fd5b610f91816117e4565b50565b5f33905090565b5f73ffffffffffffffffffffffffffffffffffffffff168373ffffffffffffffffffffffffffffffffffffffff1603611009576040517f08c379a0000000000000000000000000000000000000000000000000000000008152600401611000906129b1565b60405180910390fd5b5f73ffffffffffffffffffffffffffffffffffffffff168273ffffffffffffffffffffffffffffffffffffffff1603611077576040517f08c379a000000000000000000000000000000000000000000000000000000000815260040161106e90612a3f565b60405180910390fd5b8060015f8573ffffffffffffffffffffffffffffffffffffffff1673ffffffffffffffffffffffffffffffffffffffff1681526020019081526020015f205f8473ffffffffffffffffffffffffffffffffffffffff1673ffffffffffffffffffffffffffffffffffffffff1681526020019081526020015f20819055508173ffffffffffffffffffffffffffffffffffffffff168373ffffffffffffffffffffffffffffffffffffffff167f8c5be1e5ebec7d5bd14f71427d1e84f3dd0314c0f7b2291e5b200ac8c7c3b925836040516111519190611a7e565b60405180910390a3505050565b5f6111698484610d74565b90507fffffffffffffffffffffffffffffffffffffffffffffffffffffffffffffffff81146111e357818110156111d5576040517f08c379a00000000000000000000000000000000000000000000000000000000081526004016111cc90612aa7565b60405180910390fd5b6111e28484848403610f9b565b5b50505050565b5f73ffffffffffffffffffffffffffffffffffffffff168373ffffffffffffffffffffffffffffffffffffffff1603611257576040517f08c379a000000000000000000000000000000000000000000000000000000000815260040161124e90612b35565b60405180910390fd5b5f73ffffffffffffffffffffffffffffffffffffffff168273ffffffffffffffffffffffffffffffffffffffff16036112c5576040517f08c379a00000000000000000000000000000000000000000000000000000000081526004016112bc90612bc3565b60405180910390fd5b6112d08383836118a7565b5f5f5f8573ffffffffffffffffffffffffffffffffffffffff1673ffffffffffffffffffffffffffffffffffffffff1681526020019081526020015f2054905081811015611353576040517f08c379a000000000000000000000000000000000000000000000000000000000815260040161134a90612c51565b60405180910390fd5b8181035f5f8673ffffffffffffffffffffffffffffffffffffffff1673ffffffffffffffffffffffffffffffffffffffff1681526020019081526020015f2081905550815f5f8573ffffffffffffffffffffffffffffffffffffffff1673ffffffffffffffffffffffffffffffffffffffff1681526020019081526020015f205f82825401925050819055508273ffffffffffffffffffffffffffffffffffffffff168473ffffffffffffffffffffffffffffffffffffffff167fddf252ad1be2c89b69c2b068fc378daa952ba7f163c4a11628f55a4df523b3ef8460405161143c9190611a7e565b60405180910390a361144f8484846118ac565b50505050565b61145d610f94565b73ffffffffffffffffffffffffffffffffffffffff1661147b610a29565b73ffffffffffffffffffffffffffffffffffffffff16146114d1576040517f08c379a00000000000000000000000000000000000000000000000000000000081526004016114c890612cb9565b60405180910390fd5b565b5f73ffffffffffffffffffffffffffffffffffffffff168273ffffffffffffffffffffffffffffffffffffffff1603611541576040517f08c379a000000000000000000000000000000000000000000000000000000000815260040161153890612d21565b60405180910390fd5b61154c5f83836118a7565b8060025f82825461155d9190611fb3565b92505081905550805f5f8473ffffffffffffffffffffffffffffffffffffffff1673ffffffffffffffffffffffffffffffffffffffff1681526020019081526020015f205f82825401925050819055508173ffffffffffffffffffffffffffffffffffffffff165f73ffffffffffffffffffffffffffffffffffffffff167fddf252ad1be2c89b69c2b068fc378daa952ba7f163c4a11628f55a4df523b3ef8360405161160a9190611a7e565b60405180910390a361161d5f83836118ac565b5050565b5f73ffffffffffffffffffffffffffffffffffffffff168273ffffffffffffffffffffffffffffffffffffffff160361168f576040517f08c379a000000000000000000000000000000000000000000000000000000000815260040161168690612daf565b60405180910390fd5b61169a825f836118a7565b5f5f5f8473ffffffffffffffffffffffffffffffffffffffff1673ffffffffffffffffffffffffffffffffffffffff1681526020019081526020015f205490508181101561171d576040517f08c379a000000000000000000000000000000000000000000000000000000000815260040161171490612e3d565b60405180910390fd5b8181035f5f8573ffffffffffffffffffffffffffffffffffffffff1673ffffffffffffffffffffffffffffffffffffffff1681526020019081526020015f20819055508160025f82825403925050819055505f73ffffffffffffffffffffffffffffffffffffffff168373ffffffffffffffffffffffffffffffffffffffff167fddf252ad1be2c89b69c2b068fc378daa952ba7f163c4a11628f55a4df523b3ef846040516117cc9190611a7e565b60405180910390a36117df835f846118ac565b505050565b5f60055f9054906101000a900473ffffffffffffffffffffffffffffffffffffffff1690508160055f6101000a81548173ffffffffffffffffffffffffffffffffffffffff021916908373ffffffffffffffffffffffffffffffffffffffff1602179055508173ffffffffffffffffffffffffffffffffffffffff168173ffffffffffffffffffffffffffffffffffffffff167f8be0079c531659141344cd1fd0a4f28419497f9722a3daafe3b4186f6b6457e060405160405180910390a35050565b505050565b505050565b6040518060600160405280606081526020015f81526020015f81525090565b5f81519050919050565b5f82825260208201905092915050565b8281835e5f83830152505050565b5f601f19601f8301169050919050565b5f611912826118d0565b61191c81856118da565b935061192c8185602086016118ea565b611935816118f8565b840191505092915050565b5f6020820190508181035f8301526119588184611908565b905092915050565b5f604051905090565b5f5ffd5b5f5ffd5b5f73ffffffffffffffffffffffffffffffffffffffff82169050919050565b5f61199a82611971565b9050919050565b6119aa81611990565b81146119b4575f5ffd5b50565b5f813590506119c5816119a1565b92915050565b5f819050919050565b6119dd816119cb565b81146119e7575f5ffd5b50565b5f813590506119f8816119d4565b92915050565b5f5f60408385031215611a1457611a13611969565b5b5f611a21858286016119b7565b9250506020611a32858286016119ea565b9150509250929050565b5f8115159050919050565b611a5081611a3c565b82525050565b5f602082019050611a695f830184611a47565b92915050565b611a78816119cb565b82525050565b5f602082019050611a915f830184611a6f565b92915050565b5f5f5f60608486031215611aae57611aad611969565b5b5f611abb868287016119b7565b9350506020611acc868287016119b7565b9250506040611add868287016119ea565b9150509250925092565b5f60208284031215611afc57611afb611969565b5b5f611b09848285016119ea565b91505092915050565b5f82825260208201905092915050565b5f611b2c826118d0565b611b368185611b12565b9350611b468185602086016118ea565b611b4f816118f8565b840191505092915050565b611b63816119cb565b82525050565b5f606083015f8301518482035f860152611b838282611b22565b9150506020830151611b986020860182611b5a565b506040830151611bab6040860182611b5a565b508091505092915050565b5f6020820190508181035f830152611bce8184611b69565b905092915050565b5f60ff82169050919050565b611beb81611bd6565b82525050565b5f602082019050611c045f830184611be2565b92915050565b5f60208284031215611c1f57611c1e611969565b5b5f611c2c848285016119b7565b91505092915050565b5f5f60408385031215611c4b57611c4a611969565b5b5f611c58858286016119ea565b9250506020611c69858286016119ea565b9150509250929050565b611c7c81611990565b82525050565b5f602082019050611c955f830184611c73565b92915050565b5f6060820190508181035f830152611cb38186611908565b9050611cc26020830185611a6f565b611ccf6040830184611a6f565b949350505050565b5f5f60408385031215611ced57611cec611969565b5b5f611cfa858286016119b7565b9250506020611d0b858286016119b7565b9150509250929050565b5f5ffd5b5f5ffd5b7f4e487b71000000000000000000000000000000000000000000000000000000005f52604160045260245ffd5b611d53826118f8565b810181811067ffffffffffffffff82111715611d7257611d71611d1d565b5b80604052505050565b5f611d84611960565b9050611d908282611d4a565b919050565b5f67ffffffffffffffff821115611daf57611dae611d1d565b5b611db8826118f8565b9050602081019050919050565b828183375f83830152505050565b5f611de5611de084611d95565b611d7b565b905082815260208101848484011115611e0157611e00611d19565b5b611e0c848285611dc5565b509392505050565b5f82601f830112611e2857611e27611d15565b5b8135611e38848260208601611dd3565b91505092915050565b5f5f5f5f60808587031215611e5957611e58611969565b5b5f611e66878288016119ea565b945050602085013567ffffffffffffffff811115611e8757611e8661196d565b5b611e9387828801611e14565b9350506040611ea4878288016119ea565b9250506060611eb5878288016119ea565b91505092959194509250565b7f4e487b71000000000000000000000000000000000000000000000000000000005f52602260045260245ffd5b5f6002820490506001821680611f0557607f821691505b602082108103611f1857611f17611ec1565b5b50919050565b7f537570706c792076616c6964204974656d2049440000000000000000000000005f82015250565b5f611f526014836118da565b9150611f5d82611f1e565b602082019050919050565b5f6020820190508181035f830152611f7f81611f46565b9050919050565b7f4e487b71000000000000000000000000000000000000000000000000000000005f52601160045260245ffd5b5f611fbd826119cb565b9150611fc8836119cb565b9250828201905080821115611fe057611fdf611f86565b5b92915050565b7f4275726e20616d6f756e74206f66206d6f7265207468616e20302044474e20695f8201527f7320726571756972656421000000000000000000000000000000000000000000602082015250565b5f612040602b836118da565b915061204b82611fe6565b604082019050919050565b5f6020820190508181035f83015261206d81612034565b9050919050565b7f496e73756666696369656e7420616d6f756e74206f662044474e20746f2062755f8201527f726e000000000000000000000000000000000000000000000000000000000000602082015250565b5f6120ce6022836118da565b91506120d982612074565b604082019050919050565b5f6020820190508181035f8301526120fb816120c2565b9050919050565b7f537570706c7920612076616c6964204974656d204944000000000000000000005f82015250565b5f6121366016836118da565b915061214182612102565b602082019050919050565b5f6020820190508181035f8301526121638161212a565b9050919050565b7f4e6f2e206f66204974656d7320746f205075726368617365206d7573742062655f8201527f206d6f7265207468616e20300000000000000000000000000000000000000000602082015250565b5f6121c4602c836118da565b91506121cf8261216a565b604082019050919050565b5f6020820190508181035f8301526121f1816121b8565b9050919050565b7f4974656d206f7574206f662053746f636b0000000000000000000000000000005f82015250565b5f61222c6011836118da565b9150612237826121f8565b602082019050919050565b5f6020820190508181035f83015261225981612220565b9050919050565b7f43616e6e6f74207075726368617365206d6f7265207468616e207468652063755f8201527f7272656e742073746f636b210000000000000000000000000000000000000000602082015250565b5f6122ba602c836118da565b91506122c582612260565b604082019050919050565b5f6020820190508181035f8301526122e7816122ae565b9050919050565b7f496e73756666696369656e742044474e20546f6b656e730000000000000000005f82015250565b5f6123226017836118da565b915061232d826122ee565b602082019050919050565b5f6020820190508181035f83015261234f81612316565b9050919050565b5f612360826119cb565b915061236b836119cb565b925082820390508181111561238357612382611f86565b5b92915050565b5f612393826119cb565b915061239e836119cb565b92508282026123ac816119cb565b915082820484148315176123c3576123c2611f86565b5b5092915050565b7f45524332303a2064656372656173656420616c6c6f77616e63652062656c6f775f8201527f207a65726f000000000000000000000000000000000000000000000000000000602082015250565b5f6124246025836118da565b915061242f826123ca565b604082019050919050565b5f6020820190508181035f83015261245181612418565b9050919050565b7f5472616e73666572206f66206d6f7265207468616e20302044474e20697320725f8201527f6571756972656421000000000000000000000000000000000000000000000000602082015250565b5f6124b26028836118da565b91506124bd82612458565b604082019050919050565b5f6020820190508181035f8301526124df816124a6565b9050919050565b7f496e73756666696369656e742044474e20746f207472616e73666572000000005f82015250565b5f61251a601c836118da565b9150612525826124e6565b602082019050919050565b5f6020820190508181035f8301526125478161250e565b9050919050565b7f4974656d204944205265676973746572206d75737420626520677265617465725f8201527f207468616e203000000000000000000000000000000000000000000000000000602082015250565b5f6125a86027836118da565b91506125b38261254e565b604082019050919050565b5f6020820190508181035f8301526125d58161259c565b9050919050565b7f4974656d204e616d652063616e6e6f7420626520656d707479000000000000005f82015250565b5f6126106019836118da565b915061261b826125dc565b602082019050919050565b5f6020820190508181035f83015261263d81612604565b9050919050565b5f819050815f5260205f209050919050565b5f6020601f8301049050919050565b5f82821b905092915050565b5f600883026126a07fffffffffffffffffffffffffffffffffffffffffffffffffffffffffffffffff82612665565b6126aa8683612665565b95508019841693508086168417925050509392505050565b5f819050919050565b5f6126e56126e06126db846119cb565b6126c2565b6119cb565b9050919050565b5f819050919050565b6126fe836126cb565b61271261270a826126ec565b848454612671565b825550505050565b5f5f905090565b61272961271a565b6127348184846126f5565b505050565b5b818110156127575761274c5f82612721565b60018101905061273a565b5050565b601f82111561279c5761276d81612644565b61277684612656565b81016020851015612785578190505b61279961279185612656565b830182612739565b50505b505050565b5f82821c905092915050565b5f6127bc5f19846008026127a1565b1980831691505092915050565b5f6127d483836127ad565b9150826002028217905092915050565b6127ed826118d0565b67ffffffffffffffff81111561280657612805611d1d565b5b6128108254611eee565b61281b82828561275b565b5f60209050601f83116001811461284c575f841561283a578287015190505b61284485826127c9565b8655506128ab565b601f19841661285a86612644565b5f5b828110156128815784890151825560018201915060208501945060208101905061285c565b8683101561289e578489015161289a601f8916826127ad565b8355505b6001600288020188555050505b505050505050565b7f4f776e61626c653a206e6577206f776e657220697320746865207a65726f20615f8201527f6464726573730000000000000000000000000000000000000000000000000000602082015250565b5f61290d6026836118da565b9150612918826128b3565b604082019050919050565b5f6020820190508181035f83015261293a81612901565b9050919050565b7f45524332303a20617070726f76652066726f6d20746865207a65726f206164645f8201527f7265737300000000000000000000000000000000000000000000000000000000602082015250565b5f61299b6024836118da565b91506129a682612941565b604082019050919050565b5f6020820190508181035f8301526129c88161298f565b9050919050565b7f45524332303a20617070726f766520746f20746865207a65726f2061646472655f8201527f7373000000000000000000000000000000000000000000000000000000000000602082015250565b5f612a296022836118da565b9150612a34826129cf565b604082019050919050565b5f6020820190508181035f830152612a5681612a1d565b9050919050565b7f45524332303a20696e73756666696369656e7420616c6c6f77616e63650000005f82015250565b5f612a91601d836118da565b9150612a9c82612a5d565b602082019050919050565b5f6020820190508181035f830152612abe81612a85565b9050919050565b7f45524332303a207472616e736665722066726f6d20746865207a65726f2061645f8201527f6472657373000000000000000000000000000000000000000000000000000000602082015250565b5f612b1f6025836118da565b9150612b2a82612ac5565b604082019050919050565b5f6020820190508181035f830152612b4c81612b13565b9050919050565b7f45524332303a207472616e7366657220746f20746865207a65726f20616464725f8201527f6573730000000000000000000000000000000000000000000000000000000000602082015250565b5f612bad6023836118da565b9150612bb882612b53565b604082019050919050565b5f6020820190508181035f830152612bda81612ba1565b9050919050565b7f45524332303a207472616e7366657220616d6f756e74206578636565647320625f8201527f616c616e63650000000000000000000000000000000000000000000000000000602082015250565b5f612c3b6026836118da565b9150612c4682612be1565b604082019050919050565b5f6020820190508181035f830152612c6881612c2f565b9050919050565b7f4f776e61626c653a2063616c6c6572206973206e6f7420746865206f776e65725f82015250565b5f612ca36020836118da565b9150612cae82612c6f565b602082019050919050565b5f6020820190508181035f830152612cd081612c97565b9050919050565b7f45524332303a206d696e7420746f20746865207a65726f2061646472657373005f82015250565b5f612d0b601f836118da565b9150612d1682612cd7565b602082019050919050565b5f6020820190508181035f830152612d3881612cff565b9050919050565b7f45524332303a206275726e2066726f6d20746865207a65726f206164647265735f8201527f7300000000000000000000000000000000000000000000000000000000000000602082015250565b5f612d996021836118da565b9150612da482612d3f565b604082019050919050565b5f6020820190508181035f830152612dc681612d8d565b9050919050565b7f45524332303a206275726e20616d6f756e7420657863656564732062616c616e5f8201527f6365000000000000000000000000000000000000000000000000000000000000602082015250565b5f612e276022836118da565b9150612e3282612dcd565b604082019050919050565b5f6020820190508181035f830152612e5481612e1b565b905091905056fea264697066735822122078b5fbcf46f5694dbe59d91db52a1e2b8f91189c41980f6571c54e2b677295b064736f6c634300081b0033",
  "linkReferences": {},
  "deployedLinkReferences": {}
}